{
  "contractName": "CardFactory",
  "abi": [
    {
      "constant": true,
      "inputs": [],
      "name": "roundsCounter",
      "outputs": [
        {
          "name": "",
          "type": "uint256"
        }
      ],
      "payable": false,
      "stateMutability": "view",
      "type": "function"
    },
    {
      "constant": true,
      "inputs": [
        {
          "name": "",
          "type": "address"
        }
      ],
      "name": "ownerScore",
      "outputs": [
        {
          "name": "",
          "type": "uint256"
        }
      ],
      "payable": false,
      "stateMutability": "view",
      "type": "function"
    },
    {
      "constant": true,
      "inputs": [
        {
          "name": "",
          "type": "uint256"
        }
      ],
      "name": "cardOwnership",
      "outputs": [
        {
          "name": "",
          "type": "address"
        }
      ],
      "payable": false,
      "stateMutability": "view",
      "type": "function"
    },
    {
      "constant": false,
      "inputs": [],
      "name": "renounceOwnership",
      "outputs": [],
      "payable": false,
      "stateMutability": "nonpayable",
      "type": "function"
    },
    {
      "constant": true,
      "inputs": [
        {
          "name": "",
          "type": "address"
        }
      ],
      "name": "ownerCardCount",
      "outputs": [
        {
          "name": "",
          "type": "uint256"
        }
      ],
      "payable": false,
      "stateMutability": "view",
      "type": "function"
    },
    {
      "constant": true,
      "inputs": [],
      "name": "owner",
      "outputs": [
        {
          "name": "",
          "type": "address"
        }
      ],
      "payable": false,
      "stateMutability": "view",
      "type": "function"
    },
    {
      "constant": true,
      "inputs": [
        {
          "name": "",
          "type": "uint256"
        }
      ],
      "name": "cards",
      "outputs": [
        {
          "name": "name",
          "type": "string"
        },
        {
          "name": "tokenId",
          "type": "uint256"
        },
        {
          "name": "category",
          "type": "uint16"
        },
        {
          "name": "spell_1",
          "type": "uint16"
        },
        {
          "name": "spell_2",
          "type": "uint16"
        },
        {
          "name": "spell_3",
          "type": "uint16"
        },
        {
          "name": "spell_4",
          "type": "uint16"
        },
        {
          "name": "spell_5",
          "type": "uint16"
        }
      ],
      "payable": false,
      "stateMutability": "view",
      "type": "function"
    },
    {
      "constant": true,
      "inputs": [],
      "name": "isOwner",
      "outputs": [
        {
          "name": "",
          "type": "bool"
        }
      ],
      "payable": false,
      "stateMutability": "view",
      "type": "function"
    },
    {
      "constant": true,
      "inputs": [
        {
          "name": "",
          "type": "address"
        }
      ],
      "name": "ownerLevel",
      "outputs": [
        {
          "name": "",
          "type": "uint256"
        }
      ],
      "payable": false,
      "stateMutability": "view",
      "type": "function"
    },
    {
      "constant": true,
      "inputs": [],
      "name": "_owner",
      "outputs": [
        {
          "name": "",
          "type": "address"
        }
      ],
      "payable": false,
      "stateMutability": "view",
      "type": "function"
    },
    {
      "constant": true,
      "inputs": [
        {
          "name": "",
          "type": "address"
        }
      ],
      "name": "ownerLosses",
      "outputs": [
        {
          "name": "",
          "type": "uint256"
        }
      ],
      "payable": false,
      "stateMutability": "view",
      "type": "function"
    },
    {
      "constant": true,
      "inputs": [
        {
          "name": "",
          "type": "uint256"
        }
      ],
      "name": "cardIndex",
      "outputs": [
        {
          "name": "",
          "type": "uint256"
        }
      ],
      "payable": false,
      "stateMutability": "view",
      "type": "function"
    },
    {
      "constant": false,
      "inputs": [
        {
          "name": "newOwner",
          "type": "address"
        }
      ],
      "name": "transferOwnership",
      "outputs": [],
      "payable": false,
      "stateMutability": "nonpayable",
      "type": "function"
    },
    {
      "constant": true,
      "inputs": [
        {
          "name": "",
          "type": "address"
        }
      ],
      "name": "ownerWins",
      "outputs": [
        {
          "name": "",
          "type": "uint256"
        }
      ],
      "payable": false,
      "stateMutability": "view",
      "type": "function"
    },
    {
      "anonymous": false,
      "inputs": [
        {
          "indexed": false,
          "name": "cardId",
          "type": "uint256"
        },
        {
          "indexed": false,
          "name": "name",
          "type": "string"
        },
        {
          "indexed": false,
          "name": "tokenId",
          "type": "uint256"
        },
        {
          "indexed": false,
          "name": "category",
          "type": "uint16"
        },
        {
          "indexed": false,
          "name": "spell_1",
          "type": "uint16"
        },
        {
          "indexed": false,
          "name": "spell_2",
          "type": "uint16"
        },
        {
          "indexed": false,
          "name": "spell_3",
          "type": "uint16"
        },
        {
          "indexed": false,
          "name": "spell_4",
          "type": "uint16"
        },
        {
          "indexed": false,
          "name": "spell_5",
          "type": "uint16"
        }
      ],
      "name": "NewCard",
      "type": "event"
    },
    {
      "anonymous": false,
      "inputs": [
        {
          "indexed": true,
          "name": "previousOwner",
          "type": "address"
        },
        {
          "indexed": true,
          "name": "newOwner",
          "type": "address"
        }
      ],
      "name": "OwnershipTransferred",
      "type": "event"
    },
    {
      "constant": false,
      "inputs": [
        {
          "name": "_name",
          "type": "string"
        },
        {
          "name": "_category",
          "type": "uint16"
        }
      ],
      "name": "createRandomCard",
      "outputs": [],
      "payable": false,
      "stateMutability": "nonpayable",
      "type": "function"
    },
    {
      "constant": false,
      "inputs": [
        {
          "name": "_tokenId",
          "type": "uint256"
        }
      ],
      "name": "upgradeCard",
      "outputs": [],
      "payable": true,
      "stateMutability": "payable",
      "type": "function"
    }
  ],
  "bytecode": "0x60806040526010600155600154600a0a6002556000600b556000600c60006101000a81548160ff021916908315150217905550336000806101000a81548173ffffffffffffffffffffffffffffffffffffffff021916908373ffffffffffffffffffffffffffffffffffffffff1602179055506000809054906101000a900473ffffffffffffffffffffffffffffffffffffffff1673ffffffffffffffffffffffffffffffffffffffff16600073ffffffffffffffffffffffffffffffffffffffff167f8be0079c531659141344cd1fd0a4f28419497f9722a3daafe3b4186f6b6457e060405160405180910390a3611836806100fd6000396000f3fe6080604052600436106100f35760003560e01c80638f32d59b1161008a578063c8b57b6511610059578063c8b57b65146105da578063ca89f4e41461063f578063f2fde38b1461068e578063fbc999e9146106df576100f3565b80638f32d59b146104c1578063a16db5b5146104f0578063a9cbcecb1461051e578063b2bdfa7b14610583576100f3565b8063715018a6116100c6578063715018a6146102d9578063804c4b25146102f05780638da5cb5b146103555780638dc10768146103ac576100f3565b8063034420c4146100f8578063113a59de146101235780631e7f8148146101f95780633b2154531461025e575b600080fd5b34801561010457600080fd5b5061010d610744565b6040518082815260200191505060405180910390f35b34801561012f57600080fd5b506101f76004803603604081101561014657600080fd5b810190808035906020019064010000000081111561016357600080fd5b82018360208201111561017557600080fd5b8035906020019184600183028401116401000000008311171561019757600080fd5b91908080601f016020809104026020016040519081016040528093929190818152602001838380828437600081840152601f19601f820116905080830192505050505050509192919290803561ffff16906020019092919050505061074a565b005b34801561020557600080fd5b506102486004803603602081101561021c57600080fd5b81019080803573ffffffffffffffffffffffffffffffffffffffff1690602001909291905050506107f0565b6040518082815260200191505060405180910390f35b34801561026a57600080fd5b506102976004803603602081101561028157600080fd5b8101908080359060200190929190505050610808565b604051808273ffffffffffffffffffffffffffffffffffffffff1673ffffffffffffffffffffffffffffffffffffffff16815260200191505060405180910390f35b3480156102e557600080fd5b506102ee61083b565b005b3480156102fc57600080fd5b5061033f6004803603602081101561031357600080fd5b81019080803573ffffffffffffffffffffffffffffffffffffffff16906020019092919050505061090b565b6040518082815260200191505060405180910390f35b34801561036157600080fd5b5061036a610923565b604051808273ffffffffffffffffffffffffffffffffffffffff1673ffffffffffffffffffffffffffffffffffffffff16815260200191505060405180910390f35b3480156103b857600080fd5b506103e5600480360360208110156103cf57600080fd5b810190808035906020019092919050505061094c565b60405180806020018981526020018861ffff1661ffff1681526020018761ffff1661ffff1681526020018661ffff1661ffff1681526020018561ffff1661ffff1681526020018461ffff1661ffff1681526020018361ffff1661ffff16815260200182810382528a818151815260200191508051906020019080838360005b8381101561047f578082015181840152602081019050610464565b50505050905090810190601f1680156104ac5780820380516001836020036101000a031916815260200191505b50995050505050505050505060405180910390f35b3480156104cd57600080fd5b506104d6610a8d565b604051808215151515815260200191505060405180910390f35b61051c6004803603602081101561050657600080fd5b8101908080359060200190929190505050610ae4565b005b34801561052a57600080fd5b5061056d6004803603602081101561054157600080fd5b81019080803573ffffffffffffffffffffffffffffffffffffffff169060200190929190505050611178565b6040518082815260200191505060405180910390f35b34801561058f57600080fd5b50610598611190565b604051808273ffffffffffffffffffffffffffffffffffffffff1673ffffffffffffffffffffffffffffffffffffffff16815260200191505060405180910390f35b3480156105e657600080fd5b50610629600480360360208110156105fd57600080fd5b81019080803573ffffffffffffffffffffffffffffffffffffffff1690602001909291905050506111b5565b6040518082815260200191505060405180910390f35b34801561064b57600080fd5b506106786004803603602081101561066257600080fd5b81019080803590602001909291905050506111cd565b6040518082815260200191505060405180910390f35b34801561069a57600080fd5b506106dd600480360360208110156106b157600080fd5b81019080803573ffffffffffffffffffffffffffffffffffffffff1690602001909291905050506111e5565b005b3480156106eb57600080fd5b5061072e6004803603602081101561070257600080fd5b81019080803573ffffffffffffffffffffffffffffffffffffffff169060200190929190505050611202565b6040518082815260200191505060405180910390f35b600b5481565b600061075a838361ffff1661121a565b90506064818161076657fe5b068103905060011515600c60009054906101000a900460ff16151514156107bb5761079b8382846005600a806005600a6112b9565b6000600c60006101000a81548160ff0219169083151502179055506107eb565b6107cf838284600a600580600a60056112b9565b6001600c60006101000a81548160ff0219169083151502179055505b505050565b60096020528060005260406000206000915090505481565b600a6020528060005260406000206000915054906101000a900473ffffffffffffffffffffffffffffffffffffffff1681565b610843610a8d565b61084c57600080fd5b600073ffffffffffffffffffffffffffffffffffffffff166000809054906101000a900473ffffffffffffffffffffffffffffffffffffffff1673ffffffffffffffffffffffffffffffffffffffff167f8be0079c531659141344cd1fd0a4f28419497f9722a3daafe3b4186f6b6457e060405160405180910390a360008060006101000a81548173ffffffffffffffffffffffffffffffffffffffff021916908373ffffffffffffffffffffffffffffffffffffffff160217905550565b60056020528060005260406000206000915090505481565b60008060009054906101000a900473ffffffffffffffffffffffffffffffffffffffff16905090565b6003818154811061095957fe5b9060005260206000209060030201600091509050806000018054600181600116156101000203166002900480601f016020809104026020016040519081016040528092919081815260200182805460018160011615610100020316600290048015610a055780601f106109da57610100808354040283529160200191610a05565b820191906000526020600020905b8154815290600101906020018083116109e857829003601f168201915b5050505050908060010154908060020160009054906101000a900461ffff16908060020160029054906101000a900461ffff16908060020160049054906101000a900461ffff16908060020160069054906101000a900461ffff16908060020160089054906101000a900461ffff169080600201600a9054906101000a900461ffff16905088565b60008060009054906101000a900473ffffffffffffffffffffffffffffffffffffffff1673ffffffffffffffffffffffffffffffffffffffff163373ffffffffffffffffffffffffffffffffffffffff1614905090565b600a600082815260200190815260200160002060009054906101000a900473ffffffffffffffffffffffffffffffffffffffff1673ffffffffffffffffffffffffffffffffffffffff163373ffffffffffffffffffffffffffffffffffffffff1614610bb8576040517f08c379a000000000000000000000000000000000000000000000000000000000815260040180806020018281038252601c8152602001807f4f6e6c792043617264206f776e65722063616e2075706772616465210000000081525060200191505060405180910390fd5b6000339050678ac7230489e800008173ffffffffffffffffffffffffffffffffffffffff163111610c51576040517f08c379a000000000000000000000000000000000000000000000000000000000815260040180806020018281038252601c8152602001807f506c617965722066756e6473206e6f742073756666696369656e74210000000081525060200191505060405180910390fd5b60006004600084815260200190815260200160002054905060011515600c60009054906101000a900460ff1615151415610efe5760646003808381548110610c9557fe5b906000526020600020906003020160020160029054906101000a900461ffff160161ffff161115610cff57606460038281548110610ccf57fe5b906000526020600020906003020160020160026101000a81548161ffff021916908361ffff160217905550610d4c565b6003808281548110610d0d57fe5b906000526020600020906003020160020160028282829054906101000a900461ffff160192506101000a81548161ffff021916908361ffff1602179055505b6064600260038381548110610d5d57fe5b906000526020600020906003020160020160049054906101000a900461ffff160161ffff161115610dc757606460038281548110610d9757fe5b906000526020600020906003020160020160046101000a81548161ffff021916908361ffff160217905550610e15565b600260038281548110610dd657fe5b906000526020600020906003020160020160048282829054906101000a900461ffff160192506101000a81548161ffff021916908361ffff1602179055505b6064600460038381548110610e2657fe5b9060005260206000209060030201600201600a9054906101000a900461ffff160161ffff161115610e9057606460038281548110610e6057fe5b9060005260206000209060030201600201600a6101000a81548161ffff021916908361ffff160217905550610ede565b600460038281548110610e9f57fe5b9060005260206000209060030201600201600a8282829054906101000a900461ffff160192506101000a81548161ffff021916908361ffff1602179055505b6000600c60006101000a81548160ff021916908315150217905550611173565b60646003808381548110610f0e57fe5b906000526020600020906003020160020160049054906101000a900461ffff160161ffff161115610f7857606460038281548110610f4857fe5b906000526020600020906003020160020160046101000a81548161ffff021916908361ffff160217905550610fc5565b6003808281548110610f8657fe5b906000526020600020906003020160020160048282829054906101000a900461ffff160192506101000a81548161ffff021916908361ffff1602179055505b6064600260038381548110610fd657fe5b906000526020600020906003020160020160069054906101000a900461ffff160161ffff1611156110405760646003828154811061101057fe5b906000526020600020906003020160020160066101000a81548161ffff021916908361ffff16021790555061108e565b60026003828154811061104f57fe5b906000526020600020906003020160020160068282829054906101000a900461ffff160192506101000a81548161ffff021916908361ffff1602179055505b606460046003838154811061109f57fe5b906000526020600020906003020160020160089054906101000a900461ffff160161ffff161115611109576064600382815481106110d957fe5b906000526020600020906003020160020160086101000a81548161ffff021916908361ffff160217905550611157565b60046003828154811061111857fe5b906000526020600020906003020160020160088282829054906101000a900461ffff160192506101000a81548161ffff021916908361ffff1602179055505b6001600c60006101000a81548160ff0219169083151502179055505b505050565b60066020528060005260406000206000915090505481565b6000809054906101000a900473ffffffffffffffffffffffffffffffffffffffff1681565b60086020528060005260406000206000915090505481565b60046020528060005260406000206000915090505481565b6111ed610a8d565b6111f657600080fd5b6111ff81611651565b50565b60076020528060005260406000206000915090505481565b6000808342846040516020018084805190602001908083835b602083106112565780518252602082019150602081019050602083039250611233565b6001836020036101000a03801982511681845116808217855250505050505090500183815260200182815260200193505050506040516020818303038152906040528051906020012060001c905060025481816112af57fe5b0691505092915050565b6000600160036040518061010001604052808c81526020018b81526020018a61ffff1681526020018961ffff1681526020018861ffff1681526020018761ffff1681526020018661ffff1681526020018561ffff16815250908060018154018082558091505090600182039060005260206000209060030201600090919290919091506000820151816000019080519060200190611358929190611765565b506020820151816001015560408201518160020160006101000a81548161ffff021916908361ffff16021790555060608201518160020160026101000a81548161ffff021916908361ffff16021790555060808201518160020160046101000a81548161ffff021916908361ffff16021790555060a08201518160020160066101000a81548161ffff021916908361ffff16021790555060c08201518160020160086101000a81548161ffff021916908361ffff16021790555060e082015181600201600a6101000a81548161ffff021916908361ffff160217905550505003905080600460008a81526020019081526020016000208190555033600a60008a815260200190815260200160002060006101000a81548173ffffffffffffffffffffffffffffffffffffffff021916908373ffffffffffffffffffffffffffffffffffffffff1602179055506114f76001600560003373ffffffffffffffffffffffffffffffffffffffff1673ffffffffffffffffffffffffffffffffffffffff1681526020019081526020016000205461174990919063ffffffff16565b600560003373ffffffffffffffffffffffffffffffffffffffff1673ffffffffffffffffffffffffffffffffffffffff168152602001908152602001600020819055507f6ef4644e7e6ac79d603d695aeac4b9bbf6ec2792c65044aa6cb351e69e8b8e56818a8a8a8a8a8a8a8a604051808a8152602001806020018981526020018861ffff1661ffff1681526020018761ffff1661ffff1681526020018661ffff1661ffff1681526020018561ffff1661ffff1681526020018461ffff1661ffff1681526020018361ffff1661ffff16815260200182810382528a818151815260200191508051906020019080838360005b838110156116045780820151818401526020810190506115e9565b50505050905090810190601f1680156116315780820380516001836020036101000a031916815260200191505b509a505050505050505050505060405180910390a1505050505050505050565b600073ffffffffffffffffffffffffffffffffffffffff168173ffffffffffffffffffffffffffffffffffffffff16141561168b57600080fd5b8073ffffffffffffffffffffffffffffffffffffffff166000809054906101000a900473ffffffffffffffffffffffffffffffffffffffff1673ffffffffffffffffffffffffffffffffffffffff167f8be0079c531659141344cd1fd0a4f28419497f9722a3daafe3b4186f6b6457e060405160405180910390a3806000806101000a81548173ffffffffffffffffffffffffffffffffffffffff021916908373ffffffffffffffffffffffffffffffffffffffff16021790555050565b60008082840190508381101561175b57fe5b8091505092915050565b828054600181600116156101000203166002900490600052602060002090601f016020900481019282601f106117a657805160ff19168380011785556117d4565b828001600101855582156117d4579182015b828111156117d35782518255916020019190600101906117b8565b5b5090506117e191906117e5565b5090565b61180791905b808211156118035760008160009055506001016117eb565b5090565b9056fea165627a7a723058202603014a5e301660c7f6c6ae1da330cfcf7654a634c0d1c29beea32f59be18d40029",
  "source": "pragma solidity ^0.5.0;\n\nimport \"./ownable.sol\";\nimport \"./safemath.sol\";\n\ncontract CardFactory is Ownable {\n    using SafeMath for uint256;\n    using SafeMath32 for uint32;\n    using SafeMath16 for uint16;\n    \n    event NewCard (uint cardId, string name, uint tokenId, uint16 category, uint16 spell_1, uint16 spell_2, uint16 spell_3, uint16 spell_4, uint16 spell_5);\n    uint tokenDigits = 16;\n    uint tokenModulus = 10 ** tokenDigits;\n    \n    struct Card {\n        string name;\n        uint tokenId;\n        uint16 category;\n        uint16 spell_1;\n        uint16 spell_2;\n        uint16 spell_3;\n        uint16 spell_4;\n        uint16 spell_5;\n    }\n    \n    Card[] public cards;\n    // Mapping by index\n    // mapping (uint => address) public cardOwner;\n     // Mapping by index\n    mapping (uint => uint) public cardIndex;\n    mapping (address => uint) public ownerCardCount;\n    mapping (address => uint) public ownerLevel;\n    mapping (address => uint) public ownerWins;\n    mapping (address => uint) public ownerLosses;\n    mapping (address => uint) public ownerScore;\n    //Mapping by tokenId\n    mapping (uint => address) public cardOwnership;\n    uint public roundsCounter = 0;\n    bool oddEven = false;\n    \n    function _createCard (string memory _name, uint _tokenId, uint16 _category, uint16 _spell_1, uint16 _spell_2, uint16 _spell_3, uint16 _spell_4, uint16 _spell_5) internal {\n        uint indexId = cards.push(Card(_name, _tokenId, _category, _spell_1, _spell_2, _spell_3, _spell_4, _spell_5)) - 1;\n        // cardOwner[indexId] = msg.sender;\n        cardIndex[_tokenId] = indexId;\n        cardOwnership[_tokenId] = msg.sender;\n        ownerCardCount[msg.sender] = ownerCardCount[msg.sender].add(1);\n        emit NewCard(indexId, _name, _tokenId, _category, _spell_1, _spell_2, _spell_3, _spell_4, _spell_5);\n    }\n    \n    function _generateRandomToken (string memory _str, uint _category) private view returns (uint) {\n        uint rand = uint(keccak256(abi.encodePacked(_str, now, _category)));\n        return rand % tokenModulus;\n    }\n    \n    function createRandomCard (string memory _name, uint16 _category) public {\n        uint randToken = _generateRandomToken(_name, _category);\n        randToken = randToken - randToken % 100;\n        if (oddEven == true) {\n            _createCard(_name, randToken, _category, 5, 10, 10, 5, 10);\n            oddEven = false;\n        }\n        else {\n             _createCard(_name, randToken, _category, 10, 5, 5, 10, 5);\n             oddEven = true;\n        }\n    }\n    function upgradeCard (uint _tokenId) payable public {\n        require(msg.sender == cardOwnership[_tokenId], \"Only Card owner can upgrade!\");\n        address player = msg.sender;\n        // address payable ownerContract = address(_owner); \n        require(player.balance > 10 ether, \"Player funds not sufficient!\");\n        uint indexTemp = cardIndex[_tokenId];\n        if (oddEven == true) {\n            if ((cards[indexTemp].spell_1 + 3) > 100) {\n                cards[indexTemp].spell_1 = 100;\n            }\n            else {\n                cards[indexTemp].spell_1 += 3;\n            }\n            if ((cards[indexTemp].spell_2 + 2) > 100) {\n                cards[indexTemp].spell_2 = 100;\n            }\n            else {\n                cards[indexTemp].spell_2 += 2;\n            }\n            if ((cards[indexTemp].spell_5 + 4) > 100) {\n                cards[indexTemp].spell_5 = 100;\n            }\n            else {\n                cards[indexTemp].spell_5 += 4;\n            }\n            oddEven = false;\n        }\n        else {\n            if ((cards[indexTemp].spell_2 + 3) > 100) {\n                cards[indexTemp].spell_2 = 100;\n            }\n            else {\n                cards[indexTemp].spell_2 += 3;\n            }\n            if ((cards[indexTemp].spell_3 + 2) > 100) {\n                cards[indexTemp].spell_3 = 100;\n            }\n            else {\n                cards[indexTemp].spell_3 += 2;\n            }\n            if ((cards[indexTemp].spell_4 + 4) > 100) {\n                cards[indexTemp].spell_4 = 100;\n            }\n            else {\n                cards[indexTemp].spell_4 += 4;\n            }\n            oddEven = true;\n            // Transfer of Matic tokens to be handle in Dapp\n            // ownerContract.transfer(10 ether);\n        }\n    }\n    // function checkUpgrade (uint _indexId, uint _spell, uint _upgradeCount) internal {\n    //     uint newSpell = cards[_indexId]._spell + _upgradeCount;\n    //     if (newSpell > 100) {\n    //         cards[_indexId]._spell = 100;\n    //     }\n    //     else {\n    //         cards[_indexId].._spell = newSpell;\n    //     }\n    // }\n}\n",
  "sourcePath": "/home/denny/Desktop/Code/B/Wizard Frenzy/truffle/contracts/cardfactory.sol",
  "compiler": {
    "name": "solc",
    "version": "0.5.8+commit.23d335f2.Emscripten.clang"
  },
  "schemaVersion": "3.0.16",
  "updatedAt": "2019-10-27T11:40:52.696Z",
  "devdoc": {
    "methods": {
      "isOwner()": {
        "return": "true if `msg.sender` is the owner of the contract."
      },
      "owner()": {
        "return": "the address of the owner."
      },
      "renounceOwnership()": {
        "details": "Allows the current owner to relinquish control of the contract."
      },
      "transferOwnership(address)": {
        "details": "Allows the current owner to transfer control of the contract to a newOwner.",
        "params": {
          "newOwner": "The address to transfer ownership to."
        }
      }
    }
  },
  "userdoc": {
    "methods": {
      "renounceOwnership()": {
        "notice": "Renouncing to ownership will leave the contract without an owner. It will not be possible to call the functions with the `onlyOwner` modifier anymore."
      }
    }
  }
}