{
  "contractName": "GameStart",
  "abi": [
    {
      "constant": true,
      "inputs": [],
      "name": "roundsCounter",
      "outputs": [
        {
          "name": "",
          "type": "uint256"
        }
      ],
      "payable": false,
      "stateMutability": "view",
      "type": "function"
    },
    {
      "constant": false,
      "inputs": [
        {
          "name": "_approved",
          "type": "address"
        },
        {
          "name": "_tokenId",
          "type": "uint256"
        }
      ],
      "name": "approve",
      "outputs": [],
      "payable": true,
      "stateMutability": "payable",
      "type": "function"
    },
    {
      "constant": false,
      "inputs": [
        {
          "name": "_name",
          "type": "string"
        },
        {
          "name": "_category",
          "type": "uint16"
        }
      ],
      "name": "createRandomCard",
      "outputs": [],
      "payable": false,
      "stateMutability": "nonpayable",
      "type": "function"
    },
    {
      "constant": true,
      "inputs": [
        {
          "name": "",
          "type": "address"
        }
      ],
      "name": "ownerScore",
      "outputs": [
        {
          "name": "",
          "type": "uint256"
        }
      ],
      "payable": false,
      "stateMutability": "view",
      "type": "function"
    },
    {
      "constant": false,
      "inputs": [
        {
          "name": "_from",
          "type": "address"
        },
        {
          "name": "_to",
          "type": "address"
        },
        {
          "name": "_tokenId",
          "type": "uint256"
        }
      ],
      "name": "transferFrom",
      "outputs": [],
      "payable": true,
      "stateMutability": "payable",
      "type": "function"
    },
    {
      "constant": true,
      "inputs": [],
      "name": "playerCount",
      "outputs": [
        {
          "name": "",
          "type": "uint256"
        }
      ],
      "payable": false,
      "stateMutability": "view",
      "type": "function"
    },
    {
      "constant": true,
      "inputs": [
        {
          "name": "",
          "type": "uint256"
        }
      ],
      "name": "cardOwnership",
      "outputs": [
        {
          "name": "",
          "type": "address"
        }
      ],
      "payable": false,
      "stateMutability": "view",
      "type": "function"
    },
    {
      "constant": true,
      "inputs": [
        {
          "name": "_tokenId",
          "type": "uint256"
        }
      ],
      "name": "ownerOf",
      "outputs": [
        {
          "name": "",
          "type": "address"
        }
      ],
      "payable": false,
      "stateMutability": "view",
      "type": "function"
    },
    {
      "constant": true,
      "inputs": [
        {
          "name": "_owner",
          "type": "address"
        }
      ],
      "name": "balanceOf",
      "outputs": [
        {
          "name": "",
          "type": "uint256"
        }
      ],
      "payable": false,
      "stateMutability": "view",
      "type": "function"
    },
    {
      "constant": false,
      "inputs": [],
      "name": "renounceOwnership",
      "outputs": [],
      "payable": false,
      "stateMutability": "nonpayable",
      "type": "function"
    },
    {
      "constant": true,
      "inputs": [],
      "name": "gameStatus",
      "outputs": [
        {
          "name": "",
          "type": "bool"
        }
      ],
      "payable": false,
      "stateMutability": "view",
      "type": "function"
    },
    {
      "constant": true,
      "inputs": [
        {
          "name": "",
          "type": "address"
        }
      ],
      "name": "ownerCardCount",
      "outputs": [
        {
          "name": "",
          "type": "uint256"
        }
      ],
      "payable": false,
      "stateMutability": "view",
      "type": "function"
    },
    {
      "constant": true,
      "inputs": [],
      "name": "owner",
      "outputs": [
        {
          "name": "",
          "type": "address"
        }
      ],
      "payable": false,
      "stateMutability": "view",
      "type": "function"
    },
    {
      "constant": true,
      "inputs": [
        {
          "name": "",
          "type": "uint256"
        }
      ],
      "name": "cards",
      "outputs": [
        {
          "name": "name",
          "type": "string"
        },
        {
          "name": "tokenId",
          "type": "uint256"
        },
        {
          "name": "category",
          "type": "uint16"
        },
        {
          "name": "spell_1",
          "type": "uint16"
        },
        {
          "name": "spell_2",
          "type": "uint16"
        },
        {
          "name": "spell_3",
          "type": "uint16"
        },
        {
          "name": "spell_4",
          "type": "uint16"
        },
        {
          "name": "spell_5",
          "type": "uint16"
        }
      ],
      "payable": false,
      "stateMutability": "view",
      "type": "function"
    },
    {
      "constant": true,
      "inputs": [],
      "name": "isOwner",
      "outputs": [
        {
          "name": "",
          "type": "bool"
        }
      ],
      "payable": false,
      "stateMutability": "view",
      "type": "function"
    },
    {
      "constant": false,
      "inputs": [
        {
          "name": "_tokenId",
          "type": "uint256"
        }
      ],
      "name": "upgradeCard",
      "outputs": [],
      "payable": true,
      "stateMutability": "payable",
      "type": "function"
    },
    {
      "constant": true,
      "inputs": [
        {
          "name": "",
          "type": "address"
        }
      ],
      "name": "ownerLevel",
      "outputs": [
        {
          "name": "",
          "type": "uint256"
        }
      ],
      "payable": false,
      "stateMutability": "view",
      "type": "function"
    },
    {
      "constant": true,
      "inputs": [],
      "name": "_owner",
      "outputs": [
        {
          "name": "",
          "type": "address"
        }
      ],
      "payable": false,
      "stateMutability": "view",
      "type": "function"
    },
    {
      "constant": true,
      "inputs": [
        {
          "name": "",
          "type": "address"
        }
      ],
      "name": "ownerLosses",
      "outputs": [
        {
          "name": "",
          "type": "uint256"
        }
      ],
      "payable": false,
      "stateMutability": "view",
      "type": "function"
    },
    {
      "constant": true,
      "inputs": [
        {
          "name": "",
          "type": "uint256"
        }
      ],
      "name": "cardIndex",
      "outputs": [
        {
          "name": "",
          "type": "uint256"
        }
      ],
      "payable": false,
      "stateMutability": "view",
      "type": "function"
    },
    {
      "constant": false,
      "inputs": [
        {
          "name": "newOwner",
          "type": "address"
        }
      ],
      "name": "transferOwnership",
      "outputs": [],
      "payable": false,
      "stateMutability": "nonpayable",
      "type": "function"
    },
    {
      "constant": true,
      "inputs": [
        {
          "name": "",
          "type": "address"
        }
      ],
      "name": "ownerWins",
      "outputs": [
        {
          "name": "",
          "type": "uint256"
        }
      ],
      "payable": false,
      "stateMutability": "view",
      "type": "function"
    },
    {
      "anonymous": false,
      "inputs": [
        {
          "indexed": false,
          "name": "cardId",
          "type": "uint256"
        },
        {
          "indexed": false,
          "name": "name",
          "type": "string"
        },
        {
          "indexed": false,
          "name": "tokenId",
          "type": "uint256"
        },
        {
          "indexed": false,
          "name": "category",
          "type": "uint16"
        },
        {
          "indexed": false,
          "name": "spell_1",
          "type": "uint16"
        },
        {
          "indexed": false,
          "name": "spell_2",
          "type": "uint16"
        },
        {
          "indexed": false,
          "name": "spell_3",
          "type": "uint16"
        },
        {
          "indexed": false,
          "name": "spell_4",
          "type": "uint16"
        },
        {
          "indexed": false,
          "name": "spell_5",
          "type": "uint16"
        }
      ],
      "name": "NewCard",
      "type": "event"
    },
    {
      "anonymous": false,
      "inputs": [
        {
          "indexed": true,
          "name": "previousOwner",
          "type": "address"
        },
        {
          "indexed": true,
          "name": "newOwner",
          "type": "address"
        }
      ],
      "name": "OwnershipTransferred",
      "type": "event"
    },
    {
      "anonymous": false,
      "inputs": [
        {
          "indexed": true,
          "name": "_from",
          "type": "address"
        },
        {
          "indexed": true,
          "name": "_to",
          "type": "address"
        },
        {
          "indexed": true,
          "name": "_tokenId",
          "type": "uint256"
        }
      ],
      "name": "Transfer",
      "type": "event"
    },
    {
      "anonymous": false,
      "inputs": [
        {
          "indexed": true,
          "name": "_owner",
          "type": "address"
        },
        {
          "indexed": true,
          "name": "_approved",
          "type": "address"
        },
        {
          "indexed": true,
          "name": "_tokenId",
          "type": "uint256"
        }
      ],
      "name": "Approval",
      "type": "event"
    },
    {
      "constant": false,
      "inputs": [],
      "name": "playerRegister",
      "outputs": [],
      "payable": false,
      "stateMutability": "nonpayable",
      "type": "function"
    },
    {
      "constant": false,
      "inputs": [
        {
          "name": "_player",
          "type": "address"
        },
        {
          "name": "_tokenId",
          "type": "uint256"
        }
      ],
      "name": "gameStart",
      "outputs": [],
      "payable": false,
      "stateMutability": "nonpayable",
      "type": "function"
    },
    {
      "constant": false,
      "inputs": [
        {
          "name": "_winner",
          "type": "address"
        },
        {
          "name": "_loser",
          "type": "address"
        },
        {
          "name": "_winningScore",
          "type": "uint256"
        }
      ],
      "name": "gameOver",
      "outputs": [],
      "payable": true,
      "stateMutability": "payable",
      "type": "function"
    }
  ],
  "bytecode": "0x60806040526010600155600154600a0a6002556000600b556000600c60006101000a81548160ff0219169083151502179055506000600f60006101000a81548160ff0219169083151502179055506000601055336000806101000a81548173ffffffffffffffffffffffffffffffffffffffff021916908373ffffffffffffffffffffffffffffffffffffffff1602179055506000809054906101000a900473ffffffffffffffffffffffffffffffffffffffff1673ffffffffffffffffffffffffffffffffffffffff16600073ffffffffffffffffffffffffffffffffffffffff167f8be0079c531659141344cd1fd0a4f28419497f9722a3daafe3b4186f6b6457e060405160405180910390a36127df8061011d6000396000f3fe6080604052600436106101665760003560e01c8063715018a6116100d1578063a16db5b51161008a578063c8b57b6511610064578063c8b57b6514610923578063ca89f4e414610988578063f2fde38b146109d7578063fbc999e914610a2857610166565b8063a16db5b514610839578063a9cbcecb14610867578063b2bdfa7b146108cc57610166565b8063715018a6146105f3578063722fed7e1461060a578063804c4b25146106395780638da5cb5b1461069e5780638dc10768146106f55780638f32d59b1461080a57610166565b8063302bcc5711610123578063302bcc57146103e85780633b21545314610413578063433871871461048e5780636352211e146104fc5780636cbb15c41461057757806370a082311461058e57610166565b8063034420c41461016b578063095ea7b3146101965780630ed41c5d146101e4578063113a59de1461023f5780631e7f81481461031557806323b872dd1461037a575b600080fd5b34801561017757600080fd5b50610180610a8d565b6040518082815260200191505060405180910390f35b6101e2600480360360408110156101ac57600080fd5b81019080803573ffffffffffffffffffffffffffffffffffffffff16906020019092919080359060200190929190505050610a93565b005b3480156101f057600080fd5b5061023d6004803603604081101561020757600080fd5b81019080803573ffffffffffffffffffffffffffffffffffffffff16906020019092919080359060200190929190505050610c18565b005b34801561024b57600080fd5b506103136004803603604081101561026257600080fd5b810190808035906020019064010000000081111561027f57600080fd5b82018360208201111561029157600080fd5b803590602001918460018302840111640100000000831117156102b357600080fd5b91908080601f016020809104026020016040519081016040528093929190818152602001838380828437600081840152601f19601f820116905080830192505050505050509192919290803561ffff169060200190929190505050610e2b565b005b34801561032157600080fd5b506103646004803603602081101561033857600080fd5b81019080803573ffffffffffffffffffffffffffffffffffffffff169060200190929190505050610ed1565b6040518082815260200191505060405180910390f35b6103e66004803603606081101561039057600080fd5b81019080803573ffffffffffffffffffffffffffffffffffffffff169060200190929190803573ffffffffffffffffffffffffffffffffffffffff16906020019092919080359060200190929190505050610ee9565b005b3480156103f457600080fd5b506103fd610fcd565b6040518082815260200191505060405180910390f35b34801561041f57600080fd5b5061044c6004803603602081101561043657600080fd5b8101908080359060200190929190505050610fd3565b604051808273ffffffffffffffffffffffffffffffffffffffff1673ffffffffffffffffffffffffffffffffffffffff16815260200191505060405180910390f35b6104fa600480360360608110156104a457600080fd5b81019080803573ffffffffffffffffffffffffffffffffffffffff169060200190929190803573ffffffffffffffffffffffffffffffffffffffff16906020019092919080359060200190929190505050611006565b005b34801561050857600080fd5b506105356004803603602081101561051f57600080fd5b81019080803590602001909291905050506112d3565b604051808273ffffffffffffffffffffffffffffffffffffffff1673ffffffffffffffffffffffffffffffffffffffff16815260200191505060405180910390f35b34801561058357600080fd5b5061058c611310565b005b34801561059a57600080fd5b506105dd600480360360208110156105b157600080fd5b81019080803573ffffffffffffffffffffffffffffffffffffffff169060200190929190505050611570565b6040518082815260200191505060405180910390f35b3480156105ff57600080fd5b506106086115b9565b005b34801561061657600080fd5b5061061f611689565b604051808215151515815260200191505060405180910390f35b34801561064557600080fd5b506106886004803603602081101561065c57600080fd5b81019080803573ffffffffffffffffffffffffffffffffffffffff16906020019092919050505061169c565b6040518082815260200191505060405180910390f35b3480156106aa57600080fd5b506106b36116b4565b604051808273ffffffffffffffffffffffffffffffffffffffff1673ffffffffffffffffffffffffffffffffffffffff16815260200191505060405180910390f35b34801561070157600080fd5b5061072e6004803603602081101561071857600080fd5b81019080803590602001909291905050506116dd565b60405180806020018981526020018861ffff1661ffff1681526020018761ffff1661ffff1681526020018661ffff1661ffff1681526020018561ffff1661ffff1681526020018461ffff1661ffff1681526020018361ffff1661ffff16815260200182810382528a818151815260200191508051906020019080838360005b838110156107c85780820151818401526020810190506107ad565b50505050905090810190601f1680156107f55780820380516001836020036101000a031916815260200191505b50995050505050505050505060405180910390f35b34801561081657600080fd5b5061081f61181e565b604051808215151515815260200191505060405180910390f35b6108656004803603602081101561084f57600080fd5b8101908080359060200190929190505050611875565b005b34801561087357600080fd5b506108b66004803603602081101561088a57600080fd5b81019080803573ffffffffffffffffffffffffffffffffffffffff169060200190929190505050611f09565b6040518082815260200191505060405180910390f35b3480156108d857600080fd5b506108e1611f21565b604051808273ffffffffffffffffffffffffffffffffffffffff1673ffffffffffffffffffffffffffffffffffffffff16815260200191505060405180910390f35b34801561092f57600080fd5b506109726004803603602081101561094657600080fd5b81019080803573ffffffffffffffffffffffffffffffffffffffff169060200190929190505050611f46565b6040518082815260200191505060405180910390f35b34801561099457600080fd5b506109c1600480360360208110156109ab57600080fd5b8101908080359060200190929190505050611f5e565b6040518082815260200191505060405180910390f35b3480156109e357600080fd5b50610a26600480360360208110156109fa57600080fd5b81019080803573ffffffffffffffffffffffffffffffffffffffff169060200190929190505050611f76565b005b348015610a3457600080fd5b50610a7760048036036020811015610a4b57600080fd5b81019080803573ffffffffffffffffffffffffffffffffffffffff169060200190929190505050611f93565b6040518082815260200191505060405180910390f35b600b5481565b600a600082815260200190815260200160002060009054906101000a900473ffffffffffffffffffffffffffffffffffffffff1673ffffffffffffffffffffffffffffffffffffffff163373ffffffffffffffffffffffffffffffffffffffff1614610b67576040517f08c379a000000000000000000000000000000000000000000000000000000000815260040180806020018281038252601d8152602001807f4f6e6c79206f776e65722063616e2073657420617070726f76616c212100000081525060200191505060405180910390fd5b81600d600083815260200190815260200160002060006101000a81548173ffffffffffffffffffffffffffffffffffffffff021916908373ffffffffffffffffffffffffffffffffffffffff160217905550808273ffffffffffffffffffffffffffffffffffffffff163373ffffffffffffffffffffffffffffffffffffffff167f8c5be1e5ebec7d5bd14f71427d1e84f3dd0314c0f7b2291e5b200ac8c7c3b92560405160405180910390a45050565b60011515601460008473ffffffffffffffffffffffffffffffffffffffff1673ffffffffffffffffffffffffffffffffffffffff16815260200190815260200160002060009054906101000a900460ff1615151415610cdf576040517f08c379a00000000000000000000000000000000000000000000000000000000081526004018080602001828103825260178152602001807f506c6179657220616c726561647920696e2067616d652100000000000000000081525060200191505060405180910390fd5b6001601460008473ffffffffffffffffffffffffffffffffffffffff1673ffffffffffffffffffffffffffffffffffffffff16815260200190815260200160002060006101000a81548160ff02191690831515021790555081600e6000601054815260200190815260200160002060006101000a81548173ffffffffffffffffffffffffffffffffffffffff021916908373ffffffffffffffffffffffffffffffffffffffff160217905550610da16001601054611fab90919063ffffffff16565b60108190555080601160008473ffffffffffffffffffffffffffffffffffffffff1673ffffffffffffffffffffffffffffffffffffffff16815260200190815260200160002081905550610df53082610a93565b610e00823083610ee9565b60026010541415610e27576001600f60006101000a81548160ff0219169083151502179055505b5050565b6000610e3b838361ffff16611fc7565b905060648181610e4757fe5b068103905060011515600c60009054906101000a900460ff1615151415610e9c57610e7c8382846005600a806005600a612066565b6000600c60006101000a81548160ff021916908315150217905550610ecc565b610eb0838284600a600580600a6005612066565b6001600c60006101000a81548160ff0219169083151502179055505b505050565b60096020528060005260406000206000915090505481565b3373ffffffffffffffffffffffffffffffffffffffff16600a600083815260200190815260200160002060009054906101000a900473ffffffffffffffffffffffffffffffffffffffff1673ffffffffffffffffffffffffffffffffffffffff161480610fb457503373ffffffffffffffffffffffffffffffffffffffff16600d600083815260200190815260200160002060009054906101000a900473ffffffffffffffffffffffffffffffffffffffff1673ffffffffffffffffffffffffffffffffffffffff16145b610fbd57600080fd5b610fc88383836123fe565b505050565b60105481565b600a6020528060005260406000206000915054906101000a900473ffffffffffffffffffffffffffffffffffffffff1681565b60011515600f60009054906101000a900460ff16151514611072576040517f08c379a00000000000000000000000000000000000000000000000000000000081526004018080602001828103825260238152602001806127916023913960400191505060405180910390fd5b60006010819055506000600f60006101000a81548160ff0219169083151502179055506000601460008573ffffffffffffffffffffffffffffffffffffffff1673ffffffffffffffffffffffffffffffffffffffff16815260200190815260200160002060006101000a81548160ff0219169083151502179055506000601460008473ffffffffffffffffffffffffffffffffffffffff1673ffffffffffffffffffffffffffffffffffffffff16815260200190815260200160002060006101000a81548160ff0219169083151502179055506000601160008573ffffffffffffffffffffffffffffffffffffffff1673ffffffffffffffffffffffffffffffffffffffff1681526020019081526020016000205490506001600760008673ffffffffffffffffffffffffffffffffffffffff1673ffffffffffffffffffffffffffffffffffffffff168152602001908152602001600020600082825401925050819055506001600860008573ffffffffffffffffffffffffffffffffffffffff1673ffffffffffffffffffffffffffffffffffffffff1681526020019081526020016000206000828254019250508190555081600960008673ffffffffffffffffffffffffffffffffffffffff1673ffffffffffffffffffffffffffffffffffffffff168152602001908152602001600020600082825401925050819055506000601160008573ffffffffffffffffffffffffffffffffffffffff1673ffffffffffffffffffffffffffffffffffffffff1681526020019081526020016000205490506112c1308683610ee9565b6112cc308684610ee9565b5050505050565b6000600a600083815260200190815260200160002060009054906101000a900473ffffffffffffffffffffffffffffffffffffffff169050919050565b60001515601260003373ffffffffffffffffffffffffffffffffffffffff1673ffffffffffffffffffffffffffffffffffffffff16815260200190815260200160002060009054906101000a900460ff161515146113d6576040517f08c379a000000000000000000000000000000000000000000000000000000000815260040180806020018281038252601a8152602001807f506c6179657220616c726561647920726567697374657265642100000000000081525060200191505060405180910390fd5b6114166040518060400160405280600781526020017f4e6576696c6c65000000000000000000000000000000000000000000000000008152506001610e2b565b6114566040518060400160405280600681526020017f47656f72676500000000000000000000000000000000000000000000000000008152506001610e2b565b6114966040518060400160405280600481526020017f4c756e61000000000000000000000000000000000000000000000000000000008152506001610e2b565b6114d66040518060400160405280600381526020017f526f6e00000000000000000000000000000000000000000000000000000000008152506002610e2b565b6115166040518060400160405280600581526020017f4c7570696e0000000000000000000000000000000000000000000000000000008152506003610e2b565b6001601260003373ffffffffffffffffffffffffffffffffffffffff1673ffffffffffffffffffffffffffffffffffffffff16815260200190815260200160002060006101000a81548160ff021916908315150217905550565b6000600560008373ffffffffffffffffffffffffffffffffffffffff1673ffffffffffffffffffffffffffffffffffffffff168152602001908152602001600020549050919050565b6115c161181e565b6115ca57600080fd5b600073ffffffffffffffffffffffffffffffffffffffff166000809054906101000a900473ffffffffffffffffffffffffffffffffffffffff1673ffffffffffffffffffffffffffffffffffffffff167f8be0079c531659141344cd1fd0a4f28419497f9722a3daafe3b4186f6b6457e060405160405180910390a360008060006101000a81548173ffffffffffffffffffffffffffffffffffffffff021916908373ffffffffffffffffffffffffffffffffffffffff160217905550565b600f60009054906101000a900460ff1681565b60056020528060005260406000206000915090505481565b60008060009054906101000a900473ffffffffffffffffffffffffffffffffffffffff16905090565b600381815481106116ea57fe5b9060005260206000209060030201600091509050806000018054600181600116156101000203166002900480601f0160208091040260200160405190810160405280929190818152602001828054600181600116156101000203166002900480156117965780601f1061176b57610100808354040283529160200191611796565b820191906000526020600020905b81548152906001019060200180831161177957829003601f168201915b5050505050908060010154908060020160009054906101000a900461ffff16908060020160029054906101000a900461ffff16908060020160049054906101000a900461ffff16908060020160069054906101000a900461ffff16908060020160089054906101000a900461ffff169080600201600a9054906101000a900461ffff16905088565b60008060009054906101000a900473ffffffffffffffffffffffffffffffffffffffff1673ffffffffffffffffffffffffffffffffffffffff163373ffffffffffffffffffffffffffffffffffffffff1614905090565b600a600082815260200190815260200160002060009054906101000a900473ffffffffffffffffffffffffffffffffffffffff1673ffffffffffffffffffffffffffffffffffffffff163373ffffffffffffffffffffffffffffffffffffffff1614611949576040517f08c379a000000000000000000000000000000000000000000000000000000000815260040180806020018281038252601c8152602001807f4f6e6c792043617264206f776e65722063616e2075706772616465210000000081525060200191505060405180910390fd5b6000339050678ac7230489e800008173ffffffffffffffffffffffffffffffffffffffff1631116119e2576040517f08c379a000000000000000000000000000000000000000000000000000000000815260040180806020018281038252601c8152602001807f506c617965722066756e6473206e6f742073756666696369656e74210000000081525060200191505060405180910390fd5b60006004600084815260200190815260200160002054905060011515600c60009054906101000a900460ff1615151415611c8f5760646003808381548110611a2657fe5b906000526020600020906003020160020160029054906101000a900461ffff160161ffff161115611a9057606460038281548110611a6057fe5b906000526020600020906003020160020160026101000a81548161ffff021916908361ffff160217905550611add565b6003808281548110611a9e57fe5b906000526020600020906003020160020160028282829054906101000a900461ffff160192506101000a81548161ffff021916908361ffff1602179055505b6064600260038381548110611aee57fe5b906000526020600020906003020160020160049054906101000a900461ffff160161ffff161115611b5857606460038281548110611b2857fe5b906000526020600020906003020160020160046101000a81548161ffff021916908361ffff160217905550611ba6565b600260038281548110611b6757fe5b906000526020600020906003020160020160048282829054906101000a900461ffff160192506101000a81548161ffff021916908361ffff1602179055505b6064600460038381548110611bb757fe5b9060005260206000209060030201600201600a9054906101000a900461ffff160161ffff161115611c2157606460038281548110611bf157fe5b9060005260206000209060030201600201600a6101000a81548161ffff021916908361ffff160217905550611c6f565b600460038281548110611c3057fe5b9060005260206000209060030201600201600a8282829054906101000a900461ffff160192506101000a81548161ffff021916908361ffff1602179055505b6000600c60006101000a81548160ff021916908315150217905550611f04565b60646003808381548110611c9f57fe5b906000526020600020906003020160020160049054906101000a900461ffff160161ffff161115611d0957606460038281548110611cd957fe5b906000526020600020906003020160020160046101000a81548161ffff021916908361ffff160217905550611d56565b6003808281548110611d1757fe5b906000526020600020906003020160020160048282829054906101000a900461ffff160192506101000a81548161ffff021916908361ffff1602179055505b6064600260038381548110611d6757fe5b906000526020600020906003020160020160069054906101000a900461ffff160161ffff161115611dd157606460038281548110611da157fe5b906000526020600020906003020160020160066101000a81548161ffff021916908361ffff160217905550611e1f565b600260038281548110611de057fe5b906000526020600020906003020160020160068282829054906101000a900461ffff160192506101000a81548161ffff021916908361ffff1602179055505b6064600460038381548110611e3057fe5b906000526020600020906003020160020160089054906101000a900461ffff160161ffff161115611e9a57606460038281548110611e6a57fe5b906000526020600020906003020160020160086101000a81548161ffff021916908361ffff160217905550611ee8565b600460038281548110611ea957fe5b906000526020600020906003020160020160088282829054906101000a900461ffff160192506101000a81548161ffff021916908361ffff1602179055505b6001600c60006101000a81548160ff0219169083151502179055505b505050565b60066020528060005260406000206000915090505481565b6000809054906101000a900473ffffffffffffffffffffffffffffffffffffffff1681565b60086020528060005260406000206000915090505481565b60046020528060005260406000206000915090505481565b611f7e61181e565b611f8757600080fd5b611f90816125dc565b50565b60076020528060005260406000206000915090505481565b600080828401905083811015611fbd57fe5b8091505092915050565b6000808342846040516020018084805190602001908083835b602083106120035780518252602082019150602081019050602083039250611fe0565b6001836020036101000a03801982511681845116808217855250505050505090500183815260200182815260200193505050506040516020818303038152906040528051906020012060001c9050600254818161205c57fe5b0691505092915050565b6000600160036040518061010001604052808c81526020018b81526020018a61ffff1681526020018961ffff1681526020018861ffff1681526020018761ffff1681526020018661ffff1681526020018561ffff168152509080600181540180825580915050906001820390600052602060002090600302016000909192909190915060008201518160000190805190602001906121059291906126eb565b506020820151816001015560408201518160020160006101000a81548161ffff021916908361ffff16021790555060608201518160020160026101000a81548161ffff021916908361ffff16021790555060808201518160020160046101000a81548161ffff021916908361ffff16021790555060a08201518160020160066101000a81548161ffff021916908361ffff16021790555060c08201518160020160086101000a81548161ffff021916908361ffff16021790555060e082015181600201600a6101000a81548161ffff021916908361ffff160217905550505003905080600460008a81526020019081526020016000208190555033600a60008a815260200190815260200160002060006101000a81548173ffffffffffffffffffffffffffffffffffffffff021916908373ffffffffffffffffffffffffffffffffffffffff1602179055506122a46001600560003373ffffffffffffffffffffffffffffffffffffffff1673ffffffffffffffffffffffffffffffffffffffff16815260200190815260200160002054611fab90919063ffffffff16565b600560003373ffffffffffffffffffffffffffffffffffffffff1673ffffffffffffffffffffffffffffffffffffffff168152602001908152602001600020819055507f6ef4644e7e6ac79d603d695aeac4b9bbf6ec2792c65044aa6cb351e69e8b8e56818a8a8a8a8a8a8a8a604051808a8152602001806020018981526020018861ffff1661ffff1681526020018761ffff1661ffff1681526020018661ffff1661ffff1681526020018561ffff1661ffff1681526020018461ffff1661ffff1681526020018361ffff1661ffff16815260200182810382528a818151815260200191508051906020019080838360005b838110156123b1578082015181840152602081019050612396565b50505050905090810190601f1680156123de5780820380516001836020036101000a031916815260200191505b509a505050505050505050505060405180910390a1505050505050505050565b6124516001600560008573ffffffffffffffffffffffffffffffffffffffff1673ffffffffffffffffffffffffffffffffffffffff16815260200190815260200160002054611fab90919063ffffffff16565b600560008473ffffffffffffffffffffffffffffffffffffffff1673ffffffffffffffffffffffffffffffffffffffff168152602001908152602001600020819055506124e76001600560003373ffffffffffffffffffffffffffffffffffffffff1673ffffffffffffffffffffffffffffffffffffffff168152602001908152602001600020546126d490919063ffffffff16565b600560003373ffffffffffffffffffffffffffffffffffffffff1673ffffffffffffffffffffffffffffffffffffffff1681526020019081526020016000208190555081600a600083815260200190815260200160002060006101000a81548173ffffffffffffffffffffffffffffffffffffffff021916908373ffffffffffffffffffffffffffffffffffffffff160217905550808273ffffffffffffffffffffffffffffffffffffffff168473ffffffffffffffffffffffffffffffffffffffff167fddf252ad1be2c89b69c2b068fc378daa952ba7f163c4a11628f55a4df523b3ef60405160405180910390a4505050565b600073ffffffffffffffffffffffffffffffffffffffff168173ffffffffffffffffffffffffffffffffffffffff16141561261657600080fd5b8073ffffffffffffffffffffffffffffffffffffffff166000809054906101000a900473ffffffffffffffffffffffffffffffffffffffff1673ffffffffffffffffffffffffffffffffffffffff167f8be0079c531659141344cd1fd0a4f28419497f9722a3daafe3b4186f6b6457e060405160405180910390a3806000806101000a81548173ffffffffffffffffffffffffffffffffffffffff021916908373ffffffffffffffffffffffffffffffffffffffff16021790555050565b6000828211156126e057fe5b818303905092915050565b828054600181600116156101000203166002900490600052602060002090601f016020900481019282601f1061272c57805160ff191683800117855561275a565b8280016001018555821561275a579182015b8281111561275957825182559160200191906001019061273e565b5b509050612767919061276b565b5090565b61278d91905b80821115612789576000816000905550600101612771565b5090565b9056fe47616d65206973206e6f74206c6976652c2063616e6e6f7420656e642067616d652121a165627a7a72305820dd48291e30f5a5151e6158816751cfe28d7a7a0d5803abfcbce8bd9cced5acdc0029",
  "source": "pragma solidity ^0.5.0;\n\nimport \"./cardownership.sol\";\n\ncontract GameStart is Ownership {\n    \n    mapping (uint256 => address) players;\n    // bool public player1Flag = false;\n    // bool public player2Flag = false;\n    bool public gameStatus = false;\n    uint public playerCount = 0;\n    mapping (address => uint256) gambledCard;\n    mapping (address => bool) playerStatus;\n    mapping (uint256 => address) totalPlayers;\n    \n    mapping (address => bool) playerFlag;\n    \n    function playerRegister () public {\n        require(playerStatus[msg.sender] == false, \"Player already registered!\");\n        // totalPlayers.push(_player);\n        // Assign 5 cards to new player\n        createRandomCard (\"Neville\", 1);\n        createRandomCard (\"George\", 1);\n        createRandomCard (\"Luna\", 1);\n        createRandomCard (\"Ron\", 2);\n        createRandomCard (\"Lupin\", 3);\n        // Credit 50 WFTs to new player\n        // transfer(msg.sender, 50);\n        playerStatus[msg.sender] = true;\n    }\n    \n    // passing indexId of card being gambled, give contract address approval to transfer card to winner\n    // both players need to call gameStart() individually\n    function gameStart (address _player, uint256 _tokenId) public {\n        require(playerFlag[_player] != true, \"Player already in game!\");\n        playerFlag[_player] = true;\n        players[playerCount] = _player;\n        playerCount = playerCount.add(1);\n        gambledCard[_player] = _tokenId;\n        // Approve contract address to transfer Card to winner\n        approve(address(this), _tokenId);\n        transferFrom(_player, address(this), _tokenId);\n        if (playerCount == 2) {\n            gameStatus = true;\n        }\n    }\n    \n    function gameOver (address _winner, address _loser, uint256 _winningScore) public payable {\n        require (gameStatus == true, \"Game is not live, cannot end game!!\");\n        playerCount = 0;\n        gameStatus = false;\n        playerFlag[_winner] = false;\n        playerFlag[_loser] = false;\n        uint256 winnerToken = gambledCard[_winner];\n        ownerWins[_winner] += 1;\n        ownerLosses[_loser] += 1;\n        ownerScore[_winner] += _winningScore;\n        uint256 loserToken = gambledCard[_loser];\n        // address contractAddress = address(this);\n        // Loser's card goes to winner from contract address\n        transferFrom(address(this), _winner, loserToken);\n        // Winner's card returns to winner from contract address\n        transferFrom(address(this), _winner, winnerToken);\n    }\n}\n",
  "sourcePath": "/home/denny/Desktop/Code/B/Wizard Frenzy/truffle/contracts/gamestart.sol",
  "compiler": {
    "name": "solc",
    "version": "0.5.8+commit.23d335f2.Emscripten.clang"
  },
  "schemaVersion": "3.0.16",
  "updatedAt": "2019-10-27T11:40:57.225Z",
  "devdoc": {
    "methods": {
      "isOwner()": {
        "return": "true if `msg.sender` is the owner of the contract."
      },
      "owner()": {
        "return": "the address of the owner."
      },
      "renounceOwnership()": {
        "details": "Allows the current owner to relinquish control of the contract."
      },
      "transferOwnership(address)": {
        "details": "Allows the current owner to transfer control of the contract to a newOwner.",
        "params": {
          "newOwner": "The address to transfer ownership to."
        }
      }
    }
  },
  "userdoc": {
    "methods": {
      "renounceOwnership()": {
        "notice": "Renouncing to ownership will leave the contract without an owner. It will not be possible to call the functions with the `onlyOwner` modifier anymore."
      }
    }
  }
}