{
  "contractName": "Ownership",
  "abi": [
    {
      "constant": true,
      "inputs": [],
      "name": "roundsCounter",
      "outputs": [
        {
          "name": "",
          "type": "uint256"
        }
      ],
      "payable": false,
      "stateMutability": "view",
      "type": "function"
    },
    {
      "constant": false,
      "inputs": [
        {
          "name": "_name",
          "type": "string"
        },
        {
          "name": "_category",
          "type": "uint16"
        }
      ],
      "name": "createRandomCard",
      "outputs": [],
      "payable": false,
      "stateMutability": "nonpayable",
      "type": "function"
    },
    {
      "constant": true,
      "inputs": [
        {
          "name": "",
          "type": "address"
        }
      ],
      "name": "ownerScore",
      "outputs": [
        {
          "name": "",
          "type": "uint256"
        }
      ],
      "payable": false,
      "stateMutability": "view",
      "type": "function"
    },
    {
      "constant": true,
      "inputs": [
        {
          "name": "",
          "type": "uint256"
        }
      ],
      "name": "cardOwnership",
      "outputs": [
        {
          "name": "",
          "type": "address"
        }
      ],
      "payable": false,
      "stateMutability": "view",
      "type": "function"
    },
    {
      "constant": false,
      "inputs": [],
      "name": "renounceOwnership",
      "outputs": [],
      "payable": false,
      "stateMutability": "nonpayable",
      "type": "function"
    },
    {
      "constant": true,
      "inputs": [
        {
          "name": "",
          "type": "address"
        }
      ],
      "name": "ownerCardCount",
      "outputs": [
        {
          "name": "",
          "type": "uint256"
        }
      ],
      "payable": false,
      "stateMutability": "view",
      "type": "function"
    },
    {
      "constant": true,
      "inputs": [],
      "name": "owner",
      "outputs": [
        {
          "name": "",
          "type": "address"
        }
      ],
      "payable": false,
      "stateMutability": "view",
      "type": "function"
    },
    {
      "constant": true,
      "inputs": [
        {
          "name": "",
          "type": "uint256"
        }
      ],
      "name": "cards",
      "outputs": [
        {
          "name": "name",
          "type": "string"
        },
        {
          "name": "tokenId",
          "type": "uint256"
        },
        {
          "name": "category",
          "type": "uint16"
        },
        {
          "name": "spell_1",
          "type": "uint16"
        },
        {
          "name": "spell_2",
          "type": "uint16"
        },
        {
          "name": "spell_3",
          "type": "uint16"
        },
        {
          "name": "spell_4",
          "type": "uint16"
        },
        {
          "name": "spell_5",
          "type": "uint16"
        }
      ],
      "payable": false,
      "stateMutability": "view",
      "type": "function"
    },
    {
      "constant": true,
      "inputs": [],
      "name": "isOwner",
      "outputs": [
        {
          "name": "",
          "type": "bool"
        }
      ],
      "payable": false,
      "stateMutability": "view",
      "type": "function"
    },
    {
      "constant": false,
      "inputs": [
        {
          "name": "_tokenId",
          "type": "uint256"
        }
      ],
      "name": "upgradeCard",
      "outputs": [],
      "payable": true,
      "stateMutability": "payable",
      "type": "function"
    },
    {
      "constant": true,
      "inputs": [
        {
          "name": "",
          "type": "address"
        }
      ],
      "name": "ownerLevel",
      "outputs": [
        {
          "name": "",
          "type": "uint256"
        }
      ],
      "payable": false,
      "stateMutability": "view",
      "type": "function"
    },
    {
      "constant": true,
      "inputs": [],
      "name": "_owner",
      "outputs": [
        {
          "name": "",
          "type": "address"
        }
      ],
      "payable": false,
      "stateMutability": "view",
      "type": "function"
    },
    {
      "constant": true,
      "inputs": [
        {
          "name": "",
          "type": "address"
        }
      ],
      "name": "ownerLosses",
      "outputs": [
        {
          "name": "",
          "type": "uint256"
        }
      ],
      "payable": false,
      "stateMutability": "view",
      "type": "function"
    },
    {
      "constant": true,
      "inputs": [
        {
          "name": "",
          "type": "uint256"
        }
      ],
      "name": "cardIndex",
      "outputs": [
        {
          "name": "",
          "type": "uint256"
        }
      ],
      "payable": false,
      "stateMutability": "view",
      "type": "function"
    },
    {
      "constant": false,
      "inputs": [
        {
          "name": "newOwner",
          "type": "address"
        }
      ],
      "name": "transferOwnership",
      "outputs": [],
      "payable": false,
      "stateMutability": "nonpayable",
      "type": "function"
    },
    {
      "constant": true,
      "inputs": [
        {
          "name": "",
          "type": "address"
        }
      ],
      "name": "ownerWins",
      "outputs": [
        {
          "name": "",
          "type": "uint256"
        }
      ],
      "payable": false,
      "stateMutability": "view",
      "type": "function"
    },
    {
      "anonymous": false,
      "inputs": [
        {
          "indexed": false,
          "name": "cardId",
          "type": "uint256"
        },
        {
          "indexed": false,
          "name": "name",
          "type": "string"
        },
        {
          "indexed": false,
          "name": "tokenId",
          "type": "uint256"
        },
        {
          "indexed": false,
          "name": "category",
          "type": "uint16"
        },
        {
          "indexed": false,
          "name": "spell_1",
          "type": "uint16"
        },
        {
          "indexed": false,
          "name": "spell_2",
          "type": "uint16"
        },
        {
          "indexed": false,
          "name": "spell_3",
          "type": "uint16"
        },
        {
          "indexed": false,
          "name": "spell_4",
          "type": "uint16"
        },
        {
          "indexed": false,
          "name": "spell_5",
          "type": "uint16"
        }
      ],
      "name": "NewCard",
      "type": "event"
    },
    {
      "anonymous": false,
      "inputs": [
        {
          "indexed": true,
          "name": "previousOwner",
          "type": "address"
        },
        {
          "indexed": true,
          "name": "newOwner",
          "type": "address"
        }
      ],
      "name": "OwnershipTransferred",
      "type": "event"
    },
    {
      "anonymous": false,
      "inputs": [
        {
          "indexed": true,
          "name": "_from",
          "type": "address"
        },
        {
          "indexed": true,
          "name": "_to",
          "type": "address"
        },
        {
          "indexed": true,
          "name": "_tokenId",
          "type": "uint256"
        }
      ],
      "name": "Transfer",
      "type": "event"
    },
    {
      "anonymous": false,
      "inputs": [
        {
          "indexed": true,
          "name": "_owner",
          "type": "address"
        },
        {
          "indexed": true,
          "name": "_approved",
          "type": "address"
        },
        {
          "indexed": true,
          "name": "_tokenId",
          "type": "uint256"
        }
      ],
      "name": "Approval",
      "type": "event"
    },
    {
      "constant": true,
      "inputs": [
        {
          "name": "_owner",
          "type": "address"
        }
      ],
      "name": "balanceOf",
      "outputs": [
        {
          "name": "",
          "type": "uint256"
        }
      ],
      "payable": false,
      "stateMutability": "view",
      "type": "function"
    },
    {
      "constant": true,
      "inputs": [
        {
          "name": "_tokenId",
          "type": "uint256"
        }
      ],
      "name": "ownerOf",
      "outputs": [
        {
          "name": "",
          "type": "address"
        }
      ],
      "payable": false,
      "stateMutability": "view",
      "type": "function"
    },
    {
      "constant": false,
      "inputs": [
        {
          "name": "_from",
          "type": "address"
        },
        {
          "name": "_to",
          "type": "address"
        },
        {
          "name": "_tokenId",
          "type": "uint256"
        }
      ],
      "name": "transferFrom",
      "outputs": [],
      "payable": true,
      "stateMutability": "payable",
      "type": "function"
    },
    {
      "constant": false,
      "inputs": [
        {
          "name": "_approved",
          "type": "address"
        },
        {
          "name": "_tokenId",
          "type": "uint256"
        }
      ],
      "name": "approve",
      "outputs": [],
      "payable": true,
      "stateMutability": "payable",
      "type": "function"
    }
  ],
  "bytecode": "0x60806040526010600155600154600a0a6002556000600b556000600c60006101000a81548160ff021916908315150217905550336000806101000a81548173ffffffffffffffffffffffffffffffffffffffff021916908373ffffffffffffffffffffffffffffffffffffffff1602179055506000809054906101000a900473ffffffffffffffffffffffffffffffffffffffff1673ffffffffffffffffffffffffffffffffffffffff16600073ffffffffffffffffffffffffffffffffffffffff167f8be0079c531659141344cd1fd0a4f28419497f9722a3daafe3b4186f6b6457e060405160405180910390a3611ee2806100fd6000396000f3fe60806040526004361061011f5760003560e01c80638da5cb5b116100a0578063b2bdfa7b11610064578063b2bdfa7b1461074b578063c8b57b65146107a2578063ca89f4e414610807578063f2fde38b14610856578063fbc999e9146108a75761011f565b80638da5cb5b1461051d5780638dc10768146105745780638f32d59b14610689578063a16db5b5146106b8578063a9cbcecb146106e65761011f565b80633b215453116100e75780633b215453146103465780636352211e146103c157806370a082311461043c578063715018a6146104a1578063804c4b25146104b85761011f565b8063034420c414610124578063095ea7b31461014f578063113a59de1461019d5780631e7f81481461027357806323b872dd146102d8575b600080fd5b34801561013057600080fd5b5061013961090c565b6040518082815260200191505060405180910390f35b61019b6004803603604081101561016557600080fd5b81019080803573ffffffffffffffffffffffffffffffffffffffff16906020019092919080359060200190929190505050610912565b005b3480156101a957600080fd5b50610271600480360360408110156101c057600080fd5b81019080803590602001906401000000008111156101dd57600080fd5b8201836020820111156101ef57600080fd5b8035906020019184600183028401116401000000008311171561021157600080fd5b91908080601f016020809104026020016040519081016040528093929190818152602001838380828437600081840152601f19601f820116905080830192505050505050509192919290803561ffff169060200190929190505050610a97565b005b34801561027f57600080fd5b506102c26004803603602081101561029657600080fd5b81019080803573ffffffffffffffffffffffffffffffffffffffff169060200190929190505050610b3d565b6040518082815260200191505060405180910390f35b610344600480360360608110156102ee57600080fd5b81019080803573ffffffffffffffffffffffffffffffffffffffff169060200190929190803573ffffffffffffffffffffffffffffffffffffffff16906020019092919080359060200190929190505050610b55565b005b34801561035257600080fd5b5061037f6004803603602081101561036957600080fd5b8101908080359060200190929190505050610c39565b604051808273ffffffffffffffffffffffffffffffffffffffff1673ffffffffffffffffffffffffffffffffffffffff16815260200191505060405180910390f35b3480156103cd57600080fd5b506103fa600480360360208110156103e457600080fd5b8101908080359060200190929190505050610c6c565b604051808273ffffffffffffffffffffffffffffffffffffffff1673ffffffffffffffffffffffffffffffffffffffff16815260200191505060405180910390f35b34801561044857600080fd5b5061048b6004803603602081101561045f57600080fd5b81019080803573ffffffffffffffffffffffffffffffffffffffff169060200190929190505050610ca9565b6040518082815260200191505060405180910390f35b3480156104ad57600080fd5b506104b6610cf2565b005b3480156104c457600080fd5b50610507600480360360208110156104db57600080fd5b81019080803573ffffffffffffffffffffffffffffffffffffffff169060200190929190505050610dc2565b6040518082815260200191505060405180910390f35b34801561052957600080fd5b50610532610dda565b604051808273ffffffffffffffffffffffffffffffffffffffff1673ffffffffffffffffffffffffffffffffffffffff16815260200191505060405180910390f35b34801561058057600080fd5b506105ad6004803603602081101561059757600080fd5b8101908080359060200190929190505050610e03565b60405180806020018981526020018861ffff1661ffff1681526020018761ffff1661ffff1681526020018661ffff1661ffff1681526020018561ffff1661ffff1681526020018461ffff1661ffff1681526020018361ffff1661ffff16815260200182810382528a818151815260200191508051906020019080838360005b8381101561064757808201518184015260208101905061062c565b50505050905090810190601f1680156106745780820380516001836020036101000a031916815260200191505b50995050505050505050505060405180910390f35b34801561069557600080fd5b5061069e610f44565b604051808215151515815260200191505060405180910390f35b6106e4600480360360208110156106ce57600080fd5b8101908080359060200190929190505050610f9b565b005b3480156106f257600080fd5b506107356004803603602081101561070957600080fd5b81019080803573ffffffffffffffffffffffffffffffffffffffff16906020019092919050505061162f565b6040518082815260200191505060405180910390f35b34801561075757600080fd5b50610760611647565b604051808273ffffffffffffffffffffffffffffffffffffffff1673ffffffffffffffffffffffffffffffffffffffff16815260200191505060405180910390f35b3480156107ae57600080fd5b506107f1600480360360208110156107c557600080fd5b81019080803573ffffffffffffffffffffffffffffffffffffffff16906020019092919050505061166c565b6040518082815260200191505060405180910390f35b34801561081357600080fd5b506108406004803603602081101561082a57600080fd5b8101908080359060200190929190505050611684565b6040518082815260200191505060405180910390f35b34801561086257600080fd5b506108a56004803603602081101561087957600080fd5b81019080803573ffffffffffffffffffffffffffffffffffffffff16906020019092919050505061169c565b005b3480156108b357600080fd5b506108f6600480360360208110156108ca57600080fd5b81019080803573ffffffffffffffffffffffffffffffffffffffff1690602001909291905050506116b9565b6040518082815260200191505060405180910390f35b600b5481565b600a600082815260200190815260200160002060009054906101000a900473ffffffffffffffffffffffffffffffffffffffff1673ffffffffffffffffffffffffffffffffffffffff163373ffffffffffffffffffffffffffffffffffffffff16146109e6576040517f08c379a000000000000000000000000000000000000000000000000000000000815260040180806020018281038252601d8152602001807f4f6e6c79206f776e65722063616e2073657420617070726f76616c212100000081525060200191505060405180910390fd5b81600d600083815260200190815260200160002060006101000a81548173ffffffffffffffffffffffffffffffffffffffff021916908373ffffffffffffffffffffffffffffffffffffffff160217905550808273ffffffffffffffffffffffffffffffffffffffff163373ffffffffffffffffffffffffffffffffffffffff167f8c5be1e5ebec7d5bd14f71427d1e84f3dd0314c0f7b2291e5b200ac8c7c3b92560405160405180910390a45050565b6000610aa7838361ffff166116d1565b905060648181610ab357fe5b068103905060011515600c60009054906101000a900460ff1615151415610b0857610ae88382846005600a806005600a611770565b6000600c60006101000a81548160ff021916908315150217905550610b38565b610b1c838284600a600580600a6005611770565b6001600c60006101000a81548160ff0219169083151502179055505b505050565b60096020528060005260406000206000915090505481565b3373ffffffffffffffffffffffffffffffffffffffff16600a600083815260200190815260200160002060009054906101000a900473ffffffffffffffffffffffffffffffffffffffff1673ffffffffffffffffffffffffffffffffffffffff161480610c2057503373ffffffffffffffffffffffffffffffffffffffff16600d600083815260200190815260200160002060009054906101000a900473ffffffffffffffffffffffffffffffffffffffff1673ffffffffffffffffffffffffffffffffffffffff16145b610c2957600080fd5b610c34838383611b08565b505050565b600a6020528060005260406000206000915054906101000a900473ffffffffffffffffffffffffffffffffffffffff1681565b6000600a600083815260200190815260200160002060009054906101000a900473ffffffffffffffffffffffffffffffffffffffff169050919050565b6000600560008373ffffffffffffffffffffffffffffffffffffffff1673ffffffffffffffffffffffffffffffffffffffff168152602001908152602001600020549050919050565b610cfa610f44565b610d0357600080fd5b600073ffffffffffffffffffffffffffffffffffffffff166000809054906101000a900473ffffffffffffffffffffffffffffffffffffffff1673ffffffffffffffffffffffffffffffffffffffff167f8be0079c531659141344cd1fd0a4f28419497f9722a3daafe3b4186f6b6457e060405160405180910390a360008060006101000a81548173ffffffffffffffffffffffffffffffffffffffff021916908373ffffffffffffffffffffffffffffffffffffffff160217905550565b60056020528060005260406000206000915090505481565b60008060009054906101000a900473ffffffffffffffffffffffffffffffffffffffff16905090565b60038181548110610e1057fe5b9060005260206000209060030201600091509050806000018054600181600116156101000203166002900480601f016020809104026020016040519081016040528092919081815260200182805460018160011615610100020316600290048015610ebc5780601f10610e9157610100808354040283529160200191610ebc565b820191906000526020600020905b815481529060010190602001808311610e9f57829003601f168201915b5050505050908060010154908060020160009054906101000a900461ffff16908060020160029054906101000a900461ffff16908060020160049054906101000a900461ffff16908060020160069054906101000a900461ffff16908060020160089054906101000a900461ffff169080600201600a9054906101000a900461ffff16905088565b60008060009054906101000a900473ffffffffffffffffffffffffffffffffffffffff1673ffffffffffffffffffffffffffffffffffffffff163373ffffffffffffffffffffffffffffffffffffffff1614905090565b600a600082815260200190815260200160002060009054906101000a900473ffffffffffffffffffffffffffffffffffffffff1673ffffffffffffffffffffffffffffffffffffffff163373ffffffffffffffffffffffffffffffffffffffff161461106f576040517f08c379a000000000000000000000000000000000000000000000000000000000815260040180806020018281038252601c8152602001807f4f6e6c792043617264206f776e65722063616e2075706772616465210000000081525060200191505060405180910390fd5b6000339050678ac7230489e800008173ffffffffffffffffffffffffffffffffffffffff163111611108576040517f08c379a000000000000000000000000000000000000000000000000000000000815260040180806020018281038252601c8152602001807f506c617965722066756e6473206e6f742073756666696369656e74210000000081525060200191505060405180910390fd5b60006004600084815260200190815260200160002054905060011515600c60009054906101000a900460ff16151514156113b5576064600380838154811061114c57fe5b906000526020600020906003020160020160029054906101000a900461ffff160161ffff1611156111b65760646003828154811061118657fe5b906000526020600020906003020160020160026101000a81548161ffff021916908361ffff160217905550611203565b60038082815481106111c457fe5b906000526020600020906003020160020160028282829054906101000a900461ffff160192506101000a81548161ffff021916908361ffff1602179055505b606460026003838154811061121457fe5b906000526020600020906003020160020160049054906101000a900461ffff160161ffff16111561127e5760646003828154811061124e57fe5b906000526020600020906003020160020160046101000a81548161ffff021916908361ffff1602179055506112cc565b60026003828154811061128d57fe5b906000526020600020906003020160020160048282829054906101000a900461ffff160192506101000a81548161ffff021916908361ffff1602179055505b60646004600383815481106112dd57fe5b9060005260206000209060030201600201600a9054906101000a900461ffff160161ffff1611156113475760646003828154811061131757fe5b9060005260206000209060030201600201600a6101000a81548161ffff021916908361ffff160217905550611395565b60046003828154811061135657fe5b9060005260206000209060030201600201600a8282829054906101000a900461ffff160192506101000a81548161ffff021916908361ffff1602179055505b6000600c60006101000a81548160ff02191690831515021790555061162a565b606460038083815481106113c557fe5b906000526020600020906003020160020160049054906101000a900461ffff160161ffff16111561142f576064600382815481106113ff57fe5b906000526020600020906003020160020160046101000a81548161ffff021916908361ffff16021790555061147c565b600380828154811061143d57fe5b906000526020600020906003020160020160048282829054906101000a900461ffff160192506101000a81548161ffff021916908361ffff1602179055505b606460026003838154811061148d57fe5b906000526020600020906003020160020160069054906101000a900461ffff160161ffff1611156114f7576064600382815481106114c757fe5b906000526020600020906003020160020160066101000a81548161ffff021916908361ffff160217905550611545565b60026003828154811061150657fe5b906000526020600020906003020160020160068282829054906101000a900461ffff160192506101000a81548161ffff021916908361ffff1602179055505b606460046003838154811061155657fe5b906000526020600020906003020160020160089054906101000a900461ffff160161ffff1611156115c05760646003828154811061159057fe5b906000526020600020906003020160020160086101000a81548161ffff021916908361ffff16021790555061160e565b6004600382815481106115cf57fe5b906000526020600020906003020160020160088282829054906101000a900461ffff160192506101000a81548161ffff021916908361ffff1602179055505b6001600c60006101000a81548160ff0219169083151502179055505b505050565b60066020528060005260406000206000915090505481565b6000809054906101000a900473ffffffffffffffffffffffffffffffffffffffff1681565b60086020528060005260406000206000915090505481565b60046020528060005260406000206000915090505481565b6116a4610f44565b6116ad57600080fd5b6116b681611ce6565b50565b60076020528060005260406000206000915090505481565b6000808342846040516020018084805190602001908083835b6020831061170d57805182526020820191506020810190506020830392506116ea565b6001836020036101000a03801982511681845116808217855250505050505090500183815260200182815260200193505050506040516020818303038152906040528051906020012060001c9050600254818161176657fe5b0691505092915050565b6000600160036040518061010001604052808c81526020018b81526020018a61ffff1681526020018961ffff1681526020018861ffff1681526020018761ffff1681526020018661ffff1681526020018561ffff1681525090806001815401808255809150509060018203906000526020600020906003020160009091929091909150600082015181600001908051906020019061180f929190611e11565b506020820151816001015560408201518160020160006101000a81548161ffff021916908361ffff16021790555060608201518160020160026101000a81548161ffff021916908361ffff16021790555060808201518160020160046101000a81548161ffff021916908361ffff16021790555060a08201518160020160066101000a81548161ffff021916908361ffff16021790555060c08201518160020160086101000a81548161ffff021916908361ffff16021790555060e082015181600201600a6101000a81548161ffff021916908361ffff160217905550505003905080600460008a81526020019081526020016000208190555033600a60008a815260200190815260200160002060006101000a81548173ffffffffffffffffffffffffffffffffffffffff021916908373ffffffffffffffffffffffffffffffffffffffff1602179055506119ae6001600560003373ffffffffffffffffffffffffffffffffffffffff1673ffffffffffffffffffffffffffffffffffffffff16815260200190815260200160002054611dde90919063ffffffff16565b600560003373ffffffffffffffffffffffffffffffffffffffff1673ffffffffffffffffffffffffffffffffffffffff168152602001908152602001600020819055507f6ef4644e7e6ac79d603d695aeac4b9bbf6ec2792c65044aa6cb351e69e8b8e56818a8a8a8a8a8a8a8a604051808a8152602001806020018981526020018861ffff1661ffff1681526020018761ffff1661ffff1681526020018661ffff1661ffff1681526020018561ffff1661ffff1681526020018461ffff1661ffff1681526020018361ffff1661ffff16815260200182810382528a818151815260200191508051906020019080838360005b83811015611abb578082015181840152602081019050611aa0565b50505050905090810190601f168015611ae85780820380516001836020036101000a031916815260200191505b509a505050505050505050505060405180910390a1505050505050505050565b611b5b6001600560008573ffffffffffffffffffffffffffffffffffffffff1673ffffffffffffffffffffffffffffffffffffffff16815260200190815260200160002054611dde90919063ffffffff16565b600560008473ffffffffffffffffffffffffffffffffffffffff1673ffffffffffffffffffffffffffffffffffffffff16815260200190815260200160002081905550611bf16001600560003373ffffffffffffffffffffffffffffffffffffffff1673ffffffffffffffffffffffffffffffffffffffff16815260200190815260200160002054611dfa90919063ffffffff16565b600560003373ffffffffffffffffffffffffffffffffffffffff1673ffffffffffffffffffffffffffffffffffffffff1681526020019081526020016000208190555081600a600083815260200190815260200160002060006101000a81548173ffffffffffffffffffffffffffffffffffffffff021916908373ffffffffffffffffffffffffffffffffffffffff160217905550808273ffffffffffffffffffffffffffffffffffffffff168473ffffffffffffffffffffffffffffffffffffffff167fddf252ad1be2c89b69c2b068fc378daa952ba7f163c4a11628f55a4df523b3ef60405160405180910390a4505050565b600073ffffffffffffffffffffffffffffffffffffffff168173ffffffffffffffffffffffffffffffffffffffff161415611d2057600080fd5b8073ffffffffffffffffffffffffffffffffffffffff166000809054906101000a900473ffffffffffffffffffffffffffffffffffffffff1673ffffffffffffffffffffffffffffffffffffffff167f8be0079c531659141344cd1fd0a4f28419497f9722a3daafe3b4186f6b6457e060405160405180910390a3806000806101000a81548173ffffffffffffffffffffffffffffffffffffffff021916908373ffffffffffffffffffffffffffffffffffffffff16021790555050565b600080828401905083811015611df057fe5b8091505092915050565b600082821115611e0657fe5b818303905092915050565b828054600181600116156101000203166002900490600052602060002090601f016020900481019282601f10611e5257805160ff1916838001178555611e80565b82800160010185558215611e80579182015b82811115611e7f578251825591602001919060010190611e64565b5b509050611e8d9190611e91565b5090565b611eb391905b80821115611eaf576000816000905550600101611e97565b5090565b9056fea165627a7a7230582016aa58a06d0d62ac489ab84f0b8ab70c7c2e5451c62b5f81683df6e132535dad0029",
  "source": "pragma solidity ^0.5.0;\n\nimport \"./erc721.sol\";\nimport \"./ownable.sol\";\nimport \"./safemath.sol\";\nimport \"./cardfactory.sol\";\n\ncontract Ownership is ERC721, CardFactory {\n    using SafeMath for uint256;\n    using SafeMath32 for uint32;\n    using SafeMath16 for uint16;\n    \n    mapping (uint => address) cardApprovals;\n    \n    \n    \n    function balanceOf (address _owner) external view returns (uint256) {\n        return ownerCardCount[_owner];\n    }\n    \n    function ownerOf (uint256 _tokenId) external view returns (address) {\n        return cardOwnership[_tokenId];\n    }\n    \n    function _transfer (address _from, address _to, uint256 _tokenId) private {\n        ownerCardCount[_to] = ownerCardCount[_to].add(1);\n        ownerCardCount[msg.sender] = ownerCardCount[msg.sender].sub(1);\n        cardOwnership[_tokenId] = _to;\n        emit Transfer (_from, _to, _tokenId);\n    }\n    \n    function transferFrom (address _from, address _to, uint256 _tokenId) public payable {\n        require (cardOwnership[_tokenId] == msg.sender || cardApprovals[_tokenId] == msg.sender);\n        _transfer(_from, _to, _tokenId);\n    }\n    // _tokenId is _indexId in the array\n    function approve (address _approved, uint256 _tokenId) public payable {\n        require(msg.sender == cardOwnership[_tokenId], \"Only owner can set approval!!\");\n        cardApprovals[_tokenId] = _approved;\n        emit Approval (msg.sender, _approved, _tokenId);\n    }\n}\n",
  "sourcePath": "/home/denny/Desktop/Code/B/Wizard Frenzy/truffle/contracts/cardownership.sol",
  "compiler": {
    "name": "solc",
    "version": "0.5.8+commit.23d335f2.Emscripten.clang"
  },
  "schemaVersion": "3.0.16",
  "updatedAt": "2019-10-27T11:40:52.706Z",
  "devdoc": {
    "methods": {
      "isOwner()": {
        "return": "true if `msg.sender` is the owner of the contract."
      },
      "owner()": {
        "return": "the address of the owner."
      },
      "renounceOwnership()": {
        "details": "Allows the current owner to relinquish control of the contract."
      },
      "transferOwnership(address)": {
        "details": "Allows the current owner to transfer control of the contract to a newOwner.",
        "params": {
          "newOwner": "The address to transfer ownership to."
        }
      }
    }
  },
  "userdoc": {
    "methods": {
      "renounceOwnership()": {
        "notice": "Renouncing to ownership will leave the contract without an owner. It will not be possible to call the functions with the `onlyOwner` modifier anymore."
      }
    }
  }
}